:020000002116C7
:100100003F065B4F666D7D077F6F777C395E797147
:10011000010204081020E4F5A0753000758C01750B
:100120008A017589F2D28CC2087520003173D20819
:1001300075200031732090FD31C220900431A1213F
:100140003A314FC2083168314FD2083168213585C4
:100150008A303196E530540FB4000280F5C394071D
:100160004003020152E53022540F90010093F52024
:100170003173227808D2A1200702C2A1D2A0C2A066
:10018000E52023F520D8EE200804D2A2C2A2300830
:1001900004D2A3C2A322C3E53013500264B4F530E5
:1001A00022900110E53093C208F5203173D208F592
:1001B00020317331C20530E530C394064003E4F5C5
:0B01C000302279047A80D9FEDAFC229C
:00000001FF
